:030000000200AD4E
:0C00AD00787FE4F6D8FD75810F02000397
:0E009F0068656C6C6F20776F726C640D0A00E0
:10008900D2AFC2AC758920759850758DF3758BF315
:06009900758780D28E2263
:100032008B0D8A0E890FAB0DAA0EA90F12005EFF5F
:1000420060101200B97401250FF50FE4350EF50E9C
:0C00520080E4AB0DAA0EA90FE4020077B9
:0800B9008F993099FDC29922D4
:100003007508FF750900750A9FE4F50BF50C1200DE
:1000130089750BC3750C50AB08AA09A90A120032E3
:0F002300E50C150CAE0B7002150B4E60E480F16E
:10005E00BB010689828A83E0225002E722BBFE02A0
:09006E00E32289828A83E49322D3
:10007700BB010689828A83F0225002F722BBFE0168
:02008700F32262
:00000001FF
